{
  "_format": "hh-sol-artifact-1",
  "contractName": "Token",
  "sourceName": "contracts/Token.sol",
  "abi": [
    {
      "inputs": [],
      "stateMutability": "nonpayable",
      "type": "constructor"
    },
    {
      "inputs": [
        {
          "internalType": "address",
          "name": "account",
          "type": "address"
        }
      ],
      "name": "balanceOf",
      "outputs": [
        {
          "internalType": "uint256",
          "name": "",
          "type": "uint256"
        }
      ],
      "stateMutability": "view",
      "type": "function"
    },
    {
      "inputs": [],
      "name": "cbr",
      "outputs": [
        {
          "internalType": "string",
          "name": "",
          "type": "string"
        }
      ],
      "stateMutability": "view",
      "type": "function"
    },
    {
      "inputs": [],
      "name": "owner",
      "outputs": [
        {
          "internalType": "address",
          "name": "",
          "type": "address"
        }
      ],
      "stateMutability": "view",
      "type": "function"
    },
    {
      "inputs": [],
      "name": "symbol",
      "outputs": [
        {
          "internalType": "string",
          "name": "",
          "type": "string"
        }
      ],
      "stateMutability": "view",
      "type": "function"
    },
    {
      "inputs": [
        {
          "internalType": "address",
          "name": "to",
          "type": "address"
        },
        {
          "internalType": "uint256",
          "name": "amount",
          "type": "uint256"
        }
      ],
      "name": "transfer",
      "outputs": [],
      "stateMutability": "nonpayable",
      "type": "function"
    }
  ],
  "bytecode": "0x60806040526040518060400160405280601381526020017f636869636b656e206261636f6e2072616e6368000000000000000000000000008152506000908051906020019061004f929190610165565b506040518060400160405280600381526020017f63627200000000000000000000000000000000000000000000000000000000008152506001908051906020019061009b929190610165565b50612710600260006101000a81548161ffff021916908361ffff1602179055503480156100c757600080fd5b50600260009054906101000a900461ffff1661ffff16600360003373ffffffffffffffffffffffffffffffffffffffff1673ffffffffffffffffffffffffffffffffffffffff16815260200190815260200160002081905550336002806101000a81548173ffffffffffffffffffffffffffffffffffffffff021916908373ffffffffffffffffffffffffffffffffffffffff160217905550610268565b82805461017190610237565b90600052602060002090601f01602090048101928261019357600085556101da565b82601f106101ac57805160ff19168380011785556101da565b828001600101855582156101da579182015b828111156101d95782518255916020019190600101906101be565b5b5090506101e791906101eb565b5090565b5b808211156102045760008160009055506001016101ec565b5090565b7f4e487b7100000000000000000000000000000000000000000000000000000000600052602260045260246000fd5b6000600282049050600182168061024f57607f821691505b60208210810361026257610261610208565b5b50919050565b61078d806102776000396000f3fe608060405234801561001057600080fd5b50600436106100575760003560e01c806370a082311461005c5780638da5cb5b1461008c57806395d89b41146100aa578063a9059cbb146100c8578063db035c13146100e4575b600080fd5b61007660048036038101906100719190610420565b610102565b6040516100839190610466565b60405180910390f35b61009461014b565b6040516100a19190610490565b60405180910390f35b6100b261016f565b6040516100bf9190610544565b60405180910390f35b6100e260048036038101906100dd9190610592565b6101fd565b005b6100ec61032f565b6040516100f99190610544565b60405180910390f35b6000600360008373ffffffffffffffffffffffffffffffffffffffff1673ffffffffffffffffffffffffffffffffffffffff168152602001908152602001600020549050919050565b60028054906101000a900473ffffffffffffffffffffffffffffffffffffffff1681565b6001805461017c90610601565b80601f01602080910402602001604051908101604052809291908181526020018280546101a890610601565b80156101f55780601f106101ca576101008083540402835291602001916101f5565b820191906000526020600020905b8154815290600101906020018083116101d857829003601f168201915b505050505081565b80600360003373ffffffffffffffffffffffffffffffffffffffff1673ffffffffffffffffffffffffffffffffffffffff16815260200190815260200160002054101561027f576040517f08c379a00000000000000000000000000000000000000000000000000000000081526004016102769061067e565b60405180910390fd5b80600360003373ffffffffffffffffffffffffffffffffffffffff1673ffffffffffffffffffffffffffffffffffffffff16815260200190815260200160002060008282546102ce91906106cd565b9250508190555080600360008473ffffffffffffffffffffffffffffffffffffffff1673ffffffffffffffffffffffffffffffffffffffff16815260200190815260200160002060008282546103249190610701565b925050819055505050565b6000805461033c90610601565b80601f016020809104026020016040519081016040528092919081815260200182805461036890610601565b80156103b55780601f1061038a576101008083540402835291602001916103b5565b820191906000526020600020905b81548152906001019060200180831161039857829003601f168201915b505050505081565b600080fd5b600073ffffffffffffffffffffffffffffffffffffffff82169050919050565b60006103ed826103c2565b9050919050565b6103fd816103e2565b811461040857600080fd5b50565b60008135905061041a816103f4565b92915050565b600060208284031215610436576104356103bd565b5b60006104448482850161040b565b91505092915050565b6000819050919050565b6104608161044d565b82525050565b600060208201905061047b6000830184610457565b92915050565b61048a816103e2565b82525050565b60006020820190506104a56000830184610481565b92915050565b600081519050919050565b600082825260208201905092915050565b60005b838110156104e55780820151818401526020810190506104ca565b838111156104f4576000848401525b50505050565b6000601f19601f8301169050919050565b6000610516826104ab565b61052081856104b6565b93506105308185602086016104c7565b610539816104fa565b840191505092915050565b6000602082019050818103600083015261055e818461050b565b905092915050565b61056f8161044d565b811461057a57600080fd5b50565b60008135905061058c81610566565b92915050565b600080604083850312156105a9576105a86103bd565b5b60006105b78582860161040b565b92505060206105c88582860161057d565b9150509250929050565b7f4e487b7100000000000000000000000000000000000000000000000000000000600052602260045260246000fd5b6000600282049050600182168061061957607f821691505b60208210810361062c5761062b6105d2565b5b50919050565b7f796f75206172652062726f6b6500000000000000000000000000000000000000600082015250565b6000610668600d836104b6565b915061067382610632565b602082019050919050565b600060208201905081810360008301526106978161065b565b9050919050565b7f4e487b7100000000000000000000000000000000000000000000000000000000600052601160045260246000fd5b60006106d88261044d565b91506106e38361044d565b9250828210156106f6576106f561069e565b5b828203905092915050565b600061070c8261044d565b91506107178361044d565b9250827fffffffffffffffffffffffffffffffffffffffffffffffffffffffffffffffff0382111561074c5761074b61069e565b5b82820190509291505056fea2646970667358221220378ca6a1a205dceb24427c96f4b5473963ace3b78131c119421966306b987c0b64736f6c634300080d0033",
  "linkReferences": {},
  "deployedLinkReferences": {}
}